:040500006BEFFEF0AF
:0405080067EFFEF0AB
:020000040001F9
:10FCCE00000010006BEFFEF00401D06B0401C06B5E
:10FCDE000401106B04011469040111690401126B13
:10FCEE000401F00EC86F0401D16B0401C16B040155
:10FCFE00186B0401000EC96F0401CF6B0401BF6BBA
:10FD0E000401086B0401000EC76F26ECFFF004011E
:10FD1E00D16B3C0ED16F41ECFFF00401D16B010EA3
:10FD2E00D16F41ECFFF01AECFFF01AECFFF004017A
:10FD3E00020ED16F41ECFFF01AECFFF01AECFFF05F
:10FD4E0004010C0ED16F41ECFFF01AECFFF01AEC2F
:10FD5E00FFF00901450E016F32ECFFF009016E0E46
:10FD6E00016F32ECFFF00901740E016F32ECFFF0FF
:10FD7E000901650E016F32ECFFF00901720E016F81
:10FD8E0032ECFFF00901200E016F32ECFFF0090199
:10FD9E00700E016F32ECFFF00901610E016F32EC53
:10FDAE00FFF00901730E016F32ECFFF00901730EC3
:10FDBE00016F32ECFFF00901630E016F32ECFFF0C0
:10FDCE0009016F0E016F32ECFFF00901640E016F35
:10FDDE0032ECFFF00901650E016F32ECFFF0090104
:10FDEE003A0E016F32ECFFF00401CF6B0401D16BC0
:10FDFE00C00ED16F41ECFFF002EE90F10401FF0E48
:10FE0E00D06F0901040E206F000026ECFFF026ECE7
:10FE1E00FFF026ECFFF026ECFFF026ECFFF04AECAC
:10FE2E00FFF00BEFFFF00901010E026FC70E016F1D
:10FE3E00000000000107FCE10207F8E112000901D1
:10FE4E00140E026FC70E016F000000000107FCE1E7
:10FE5E000207F8E11200090101510401D16A000004
:10FE6E00D16F0401CF8141ECFFF00401D16B000092
:10FE7E00090112000401CF82000000000000CF92A1
:10FE8E001AECFFF0120004010E0ED06F62ECFFF0C0
:10FE9E0004010D0ED06F62ECFFF004010B0ED06F5B
:10FEAE0062ECFFF00401070ED06F62ECFFF004016C
:10FEBE00FF0ED06F12000401D051EF6EF00BF00A5E
:10FECE0001E11200EF50EE6E09012A0E016F32ECC5
:10FEDE00FFF01AECFFF00901200702E05EEFFFF0E1
:10FEEE000901EE0E90638AEFFFF0ED0E91638AEF3B
:10FEFE00FFF0EB0E92638AEFFFF0DE0E93638AEF54
:10FF0E00FFF0D9EFFFF00901540E016F32ECFFF054
:10FF1E000901720E016F32ECFFF00901790E016FCB
:10FF2E0032ECFFF00901200E016F32ECFFF00901F7
:10FF3E00610E016F32ECFFF00901670E016F32ECBA
:10FF4E00FFF00901610E016F32ECFFF00901690E3D
:10FF5E00016F32ECFFF009016E0E016F32ECFFF013
:10FF6E0026ECFFF026ECFFF026ECFFF026ECFFF07F
:10FF7E0026ECFFF026ECFFF026ECFFF026ECFFF06F
:10FF8E0026ECFFF026ECFFF026ECFFF026ECFFF05F
:10FF9E0026ECFFF026ECFFF026ECFFF026ECFFF04F
:10FFAE006BEFFEF00901430E016F32ECFFF0090119
:10FFBE006F0E016F32ECFFF00901720E016F32EC21
:10FFCE00FFF00901720E016F32ECFFF00901650EB0
:10FFDE00016F32ECFFF00901630E016F32ECFFF09E
:10FFEE000901740E016F32ECFFF0FEEFFFF0FEEF31
:02FFFE00FFF012
:020000040030CA
:08000000F8FFF7FE9FFFFFFF70
:01000900FFF7
:00000001FF
