:040500004DEFFEF0CD
:0405080049EFFEF0C9
:020000040001F9
:10FC9200000010004DEFFEF00401D06B0401C06BB8
:10FCA2000401106B04011469040111690401126B4F
:10FCB2000401F00EC86F0401D16B0401C16B040191
:10FCC200186B0401000EC96F0401CF6B0401BF6BF6
:10FCD2000401086B0401000EC76F0AECFFF0040177
:10FCE200CF6B0401D16B3C0ED16F2DECFFF0040100
:10FCF200D16B010ED16F2DECFFF0FEECFEF0FEECAD
:10FD0200FEF00401020ED16F2DECFFF0FEECFEF0CE
:10FD1200FEECFEF004010C0ED16F2DECFFF0FEECB8
:10FD2200FEF0FEECFEF00901450E016F1EECFFF045
:10FD320009016E0E016F1EECFFF00901740E016FD6
:10FD42001EECFFF00901650E016F1EECFFF00901C8
:10FD5200720E016F1EECFFF00901200E016F1EEC06
:10FD6200FFF00901700E016F1EECFFF00901610E38
:10FD7200016F1EECFFF00901730E016F1EECFFF024
:10FD82000901730E016F1EECFFF00901630E016F92
:10FD92001EECFFF009016F0E016F1EECFFF009016E
:10FDA200640E016F1EECFFF00901650E016F1EEC7F
:10FDB200FFF009013A0E016F1EECFFF00401CF6B58
:10FDC2000401D16BC00ED16F2DECFFF002EE90F169
:10FDD2000401FF0ED06F0901040E206F00000AEC2F
:10FDE200FFF00AECFFF00AECFFF00AECFFF00AEC7D
:10FDF200FFF036ECFFF0EFEFFEF00901010E026FAB
:10FE0200C70E016F000000000107FCE10207F8E1E4
:10FE120012000901140E026FC70E016F00000000EC
:10FE22000107FCE10207F8E112000901320E216F1D
:10FE32000AECFFF02107FCE1120009010151040163
:10FE4200D16A0000D16F0401CF812DECFFF00401D3
:10FE5200D16B0000090112000401CF8200000000F2
:10FE62000000CF92FEECFEF0120004010E0ED06FE5
:10FE72004EECFFF004010D0ED06F4EECFFF00401CA
:10FE82000B0ED06F4EECFFF00401070ED06F4EEC5C
:10FE9200FFF00401FF0ED06F12000401D051EF6E8B
:10FEA200F00BF00A01E11200EF50EE6E09012A0E8A
:10FEB200016F1EECFFF0FEECFEF00901200702E0EC
:10FEC2004AEFFFF00901EE0E906376EFFFF0ED0EC0
:10FED200916376EFFFF0EB0E926376EFFFF0DE0EAA
:10FEE200936376EFFFF0C1EFFFF00401CF6B0401E3
:10FEF200D16B010ED16F2DECFFF0FEECFEF0FEECAB
:10FF0200FEF00AECFFF00AECFFF00AECFFF00AEC5C
:10FF1200FFF00AECFFF00AECFFF00901540E016F4A
:10FF22001EECFFF00901720E016F1EECFFF00901D9
:10FF3200790E016F1EECFFF00901200E016F1EEC1D
:10FF4200FFF00901610E016F1EECFFF00901670E5F
:10FF5200016F1EECFFF00901610E016F1EECFFF054
:10FF62000901690E016F1EECFFF009016E0E016FAF
:10FF72001EECFFF016ECFFF016ECFFF06EEFFEF059
:10FF82000401CF6B0401D16B010ED16F2DECFFF098
:10FF9200FEECFEF0FEECFEF00AECFFF00AECFFF0E5
:10FFA2000AECFFF00AECFFF00AECFFF00AECFFF0BB
:10FFB2000901430E016F1EECFFF009016F0E016F84
:10FFC2001EECFFF00901720E016F1EECFFF0090139
:10FFD200720E016F1EECFFF00901650E016F1EEC3F
:10FFE200FFF00901630E016F1EECFFF00901740EB0
:0EFFF200016F1EECFFF0FEEFFFF0FEEFFFF0E0
:020000040030CA
:08000000F8FFF7FE9FFFFFFF70
:01000900FFF7
:00000001FF
