:0405000087EFFFF092
:020000040001F9
:10FF0A0087EFFFF00401D16B0401C16B0401186B88
:10FF1A000401000EC96F0401CF6B0401BF6B040119
:10FF2A00086B0401000EC76FDCECFFF0DCECFFF09D
:10FF3A00DCECFFF00401D16B3C0ED16FF7ECFFF063
:10FF4A000401D16B010ED16FF7ECFFF0DCECFFF08E
:10FF5A00DCECFFF00401020ED16FF7ECFFF0DCECF1
:10FF6A00FFF0DCECFFF004010C0ED16FF7ECFFF0B0
:10FF7A00DCECFFF0DCECFFF00901480E016FE8EC65
:10FF8A00FFF00901650E016FE8ECFFF009016C0E44
:10FF9A00016FE8ECFFF009016C0E016FE8ECFFF06D
:10FFAA0009016F0E016FE8ECFFF00000FED70901AE
:10FFBA00010E026FC70E016F000000000107FCE18D
:10FFCA000207F8E11200090101510401D16A000097
:10FFDA00D16F0401CF81F7ECFFF00401D16B00006F
:10FFEA00090112000401CF82000000000000CF9234
:06FFFA00DCECFFF0120038
:020000040030CA
:08000000F9FFF7FE9FFFFFFF6F
:01000900FFF7
:00000001FF
