:0405000064EFFFF0B5
:020000040001F9
:10FEC40064EFFFF00401D16B0401C16B0401186BF2
:10FED4000401000EC96F0401CF6B0401BF6B040160
:10FEE400086B0401000EC76FD9ECFFF0D9ECFFF0EA
:10FEF400D9ECFFF0D9ECFFF0D9ECFFF0D9ECFFF02E
:10FF04000401D16B3C0ED16F0401CF6BCF83000091
:10FF140000000000D193D9ECFFF00401D16B010E75
:10FF2400D16F0401CF6BCF83000000000000CF939A
:10FF3400D9ECFFF0D9ECFFF0D9ECFFF00401020E8C
:10FF4400D16F0401CF6BCF83000000000000D19378
:10FF5400D9ECFFF0D9ECFFF0D9ECFFF004010E0E60
:10FF6400D16F0401CF80CF82000000000000CF9247
:10FF7400D9ECFFF0D9ECFFF0D9ECFFF00901000057
:10FF8400480E0401D16F0401CF80CF82000000002D
:10FF94000000CF92D9ECFFF0D9ECFFF0D9ECFFF0E0
:10FFA4000901690E016FE5ECFFF00000FED70901BD
:10FFB400FF0E026FC70E016F000000000107FCE195
:10FFC4000207F8E11200090101510401D16A00009D
:10FFD400D16FF2ECFFF00401D16B000009011200B3
:10FFE4000401CF80CF82000000000000CF92D9EC42
:0CFFF400FFF0D9ECFFF0D9ECFFF0120098
:020000040030CA
:08000000F9FFF7FE9FFFFFFF6F
:01000900FFF7
:00000001FF
